{
  "contractName": "ExerciceSolution",
  "abi": [
    {
      "inputs": [],
      "stateMutability": "nonpayable",
      "type": "constructor"
    },
    {
      "inputs": [],
      "name": "Token",
      "outputs": [
        {
          "internalType": "contract ERC20",
          "name": "",
          "type": "address"
        }
      ],
      "stateMutability": "view",
      "type": "function",
      "constant": true
    },
    {
      "inputs": [],
      "name": "WETH",
      "outputs": [
        {
          "internalType": "contract ERC20",
          "name": "",
          "type": "address"
        }
      ],
      "stateMutability": "view",
      "type": "function",
      "constant": true
    },
    {
      "inputs": [],
      "name": "dummyToken",
      "outputs": [
        {
          "internalType": "contract ERC20",
          "name": "",
          "type": "address"
        }
      ],
      "stateMutability": "view",
      "type": "function",
      "constant": true
    },
    {
      "inputs": [],
      "name": "router",
      "outputs": [
        {
          "internalType": "contract IUniswapV2Router02",
          "name": "",
          "type": "address"
        }
      ],
      "stateMutability": "view",
      "type": "function",
      "constant": true
    },
    {
      "inputs": [],
      "name": "uniLiquid",
      "outputs": [
        {
          "internalType": "contract ERC20",
          "name": "",
          "type": "address"
        }
      ],
      "stateMutability": "view",
      "type": "function",
      "constant": true
    },
    {
      "inputs": [],
      "name": "addLiquidity",
      "outputs": [],
      "stateMutability": "nonpayable",
      "type": "function"
    },
    {
      "inputs": [],
      "name": "withdrawLiquidity",
      "outputs": [],
      "stateMutability": "nonpayable",
      "type": "function"
    },
    {
      "inputs": [],
      "name": "swapYourTokenForDummyToken",
      "outputs": [],
      "stateMutability": "nonpayable",
      "type": "function"
    },
    {
      "inputs": [],
      "name": "swapYourTokenForEth",
      "outputs": [],
      "stateMutability": "nonpayable",
      "type": "function"
    }
  ],
  "bytecode": "0x608060405234801561001057600080fd5b5073b2511aecd34894ef71baa4d54c84d0a6698801cc6000806101000a81548173ffffffffffffffffffffffffffffffffffffffff021916908373ffffffffffffffffffffffffffffffffffffffff16021790555073b4fbf271143f4fbf7b91a5ded31805e42b2208d6600160006101000a81548173ffffffffffffffffffffffffffffffffffffffff021916908373ffffffffffffffffffffffffffffffffffffffff160217905550731caea8c0a8838b24ce15ff00a165c1e4d167174e600260006101000a81548173ffffffffffffffffffffffffffffffffffffffff021916908373ffffffffffffffffffffffffffffffffffffffff160217905550732af483edae4cce53186e6ed418fe92f8169ad74e600360006101000a81548173ffffffffffffffffffffffffffffffffffffffff021916908373ffffffffffffffffffffffffffffffffffffffff160217905550737a250d5630b4cf539739df2c5dacb4c659f2488d600460006101000a81548173ffffffffffffffffffffffffffffffffffffffff021916908373ffffffffffffffffffffffffffffffffffffffff1602179055506118d9806101c86000396000f3fe608060405234801561001057600080fd5b50600436106100935760003560e01c8063b83c552011610066578063b83c5520146100e8578063c241267614610106578063c4a8599314610124578063e8078d941461012e578063f887ea401461013857610093565b806367479ec5146100985780637c587b22146100b65780637ea382c1146100c0578063ad5c4648146100ca575b600080fd5b6100a0610156565b6040516100ad9190610f59565b60405180910390f35b6100be61017c565b005b6100c8610563565b005b6100d2610758565b6040516100df9190610f59565b60405180910390f35b6100f061077e565b6040516100fd9190610f59565b60405180910390f35b61010e6107a4565b60405161011b9190610f59565b60405180910390f35b61012c6107c8565b005b610136610baf565b005b610140610eb4565b60405161014d9190610f95565b60405180910390f35b600360009054906101000a900473ffffffffffffffffffffffffffffffffffffffff1681565b60008054906101000a900473ffffffffffffffffffffffffffffffffffffffff1673ffffffffffffffffffffffffffffffffffffffff1663095ea7b3600460009054906101000a900473ffffffffffffffffffffffffffffffffffffffff16620186a06040518363ffffffff1660e01b81526004016101fc929190611016565b6020604051808303816000875af115801561021b573d6000803e3d6000fd5b505050506040513d601f19601f8201168201806040525081019061023f919061108b565b61027e576040517f08c379a000000000000000000000000000000000000000000000000000000000815260040161027590611115565b60405180910390fd5b600360009054906101000a900473ffffffffffffffffffffffffffffffffffffffff1673ffffffffffffffffffffffffffffffffffffffff1663095ea7b3600460009054906101000a900473ffffffffffffffffffffffffffffffffffffffff16620186a06040518363ffffffff1660e01b8152600401610300929190611016565b6020604051808303816000875af115801561031f573d6000803e3d6000fd5b505050506040513d601f19601f82011682018060405250810190610343919061108b565b610382576040517f08c379a000000000000000000000000000000000000000000000000000000000815260040161037990611181565b60405180910390fd5b6000600267ffffffffffffffff81111561039f5761039e6111a1565b5b6040519080825280602002602001820160405280156103cd5781602001602082028036833780820191505090505b50905060008054906101000a900473ffffffffffffffffffffffffffffffffffffffff1681600081518110610405576104046111d0565b5b602002602001019073ffffffffffffffffffffffffffffffffffffffff16908173ffffffffffffffffffffffffffffffffffffffff1681525050600360009054906101000a900473ffffffffffffffffffffffffffffffffffffffff1681600181518110610476576104756111d0565b5b602002602001019073ffffffffffffffffffffffffffffffffffffffff16908173ffffffffffffffffffffffffffffffffffffffff1681525050600460009054906101000a900473ffffffffffffffffffffffffffffffffffffffff1673ffffffffffffffffffffffffffffffffffffffff166338ed17396127106103e88430426040518663ffffffff1660e01b8152600401610517959493929190611342565b6000604051808303816000875af1158015610536573d6000803e3d6000fd5b505050506040513d6000823e3d601f19601f8201168201806040525081019061055f91906114f2565b5050565b600260009054906101000a900473ffffffffffffffffffffffffffffffffffffffff1673ffffffffffffffffffffffffffffffffffffffff1663095ea7b3600460009054906101000a900473ffffffffffffffffffffffffffffffffffffffff166127106040518363ffffffff1660e01b81526004016105e492919061153b565b6020604051808303816000875af1158015610603573d6000803e3d6000fd5b505050506040513d601f19601f82011682018060405250810190610627919061108b565b610666576040517f08c379a000000000000000000000000000000000000000000000000000000000815260040161065d906115b0565b60405180910390fd5b600460009054906101000a900473ffffffffffffffffffffffffffffffffffffffff1673ffffffffffffffffffffffffffffffffffffffff1663baa2abde60008054906101000a900473ffffffffffffffffffffffffffffffffffffffff16600160009054906101000a900473ffffffffffffffffffffffffffffffffffffffff1661271060008030426040518863ffffffff1660e01b8152600401610712979695949392919061160b565b60408051808303816000875af1158015610730573d6000803e3d6000fd5b505050506040513d601f19601f82011682018060405250810190610754919061167a565b5050565b600160009054906101000a900473ffffffffffffffffffffffffffffffffffffffff1681565b600260009054906101000a900473ffffffffffffffffffffffffffffffffffffffff1681565b60008054906101000a900473ffffffffffffffffffffffffffffffffffffffff1681565b60008054906101000a900473ffffffffffffffffffffffffffffffffffffffff1673ffffffffffffffffffffffffffffffffffffffff1663095ea7b3600460009054906101000a900473ffffffffffffffffffffffffffffffffffffffff16620186a06040518363ffffffff1660e01b8152600401610848929190611016565b6020604051808303816000875af1158015610867573d6000803e3d6000fd5b505050506040513d601f19601f8201168201806040525081019061088b919061108b565b6108ca576040517f08c379a00000000000000000000000000000000000000000000000000000000081526004016108c190611115565b60405180910390fd5b600160009054906101000a900473ffffffffffffffffffffffffffffffffffffffff1673ffffffffffffffffffffffffffffffffffffffff1663095ea7b3600460009054906101000a900473ffffffffffffffffffffffffffffffffffffffff166103e86040518363ffffffff1660e01b815260040161094b9291906116ba565b6020604051808303816000875af115801561096a573d6000803e3d6000fd5b505050506040513d601f19601f8201168201806040525081019061098e919061108b565b6109cd576040517f08c379a00000000000000000000000000000000000000000000000000000000081526004016109c49061172f565b60405180910390fd5b6000600267ffffffffffffffff8111156109ea576109e96111a1565b5b604051908082528060200260200182016040528015610a185781602001602082028036833780820191505090505b50905060008054906101000a900473ffffffffffffffffffffffffffffffffffffffff1681600081518110610a5057610a4f6111d0565b5b602002602001019073ffffffffffffffffffffffffffffffffffffffff16908173ffffffffffffffffffffffffffffffffffffffff1681525050600160009054906101000a900473ffffffffffffffffffffffffffffffffffffffff1681600181518110610ac157610ac06111d0565b5b602002602001019073ffffffffffffffffffffffffffffffffffffffff16908173ffffffffffffffffffffffffffffffffffffffff1681525050600460009054906101000a900473ffffffffffffffffffffffffffffffffffffffff1673ffffffffffffffffffffffffffffffffffffffff166338ed1739620186a06103e88430426040518663ffffffff1660e01b8152600401610b6395949392919061174f565b6000604051808303816000875af1158015610b82573d6000803e3d6000fd5b505050506040513d6000823e3d601f19601f82011682018060405250810190610bab91906114f2565b5050565b6000620f4240905060006103e8905060008054906101000a900473ffffffffffffffffffffffffffffffffffffffff1673ffffffffffffffffffffffffffffffffffffffff1663095ea7b3600460009054906101000a900473ffffffffffffffffffffffffffffffffffffffff16846040518363ffffffff1660e01b8152600401610c3b9291906117a9565b6020604051808303816000875af1158015610c5a573d6000803e3d6000fd5b505050506040513d601f19601f82011682018060405250810190610c7e919061108b565b610cbd576040517f08c379a0000000000000000000000000000000000000000000000000000000008152600401610cb490611115565b60405180910390fd5b600160009054906101000a900473ffffffffffffffffffffffffffffffffffffffff1673ffffffffffffffffffffffffffffffffffffffff1663095ea7b3600460009054906101000a900473ffffffffffffffffffffffffffffffffffffffff16836040518363ffffffff1660e01b8152600401610d3c9291906117a9565b6020604051808303816000875af1158015610d5b573d6000803e3d6000fd5b505050506040513d601f19601f82011682018060405250810190610d7f919061108b565b610dbe576040517f08c379a0000000000000000000000000000000000000000000000000000000008152600401610db59061172f565b60405180910390fd5b600460009054906101000a900473ffffffffffffffffffffffffffffffffffffffff1673ffffffffffffffffffffffffffffffffffffffff1663e8e3370060008054906101000a900473ffffffffffffffffffffffffffffffffffffffff16600160009054906101000a900473ffffffffffffffffffffffffffffffffffffffff16858560008030426040518963ffffffff1660e01b8152600401610e6a9897969594939291906117d2565b6060604051808303816000875af1158015610e89573d6000803e3d6000fd5b505050506040513d601f19601f82011682018060405250810190610ead9190611850565b5050505050565b600460009054906101000a900473ffffffffffffffffffffffffffffffffffffffff1681565b600073ffffffffffffffffffffffffffffffffffffffff82169050919050565b6000819050919050565b6000610f1f610f1a610f1584610eda565b610efa565b610eda565b9050919050565b6000610f3182610f04565b9050919050565b6000610f4382610f26565b9050919050565b610f5381610f38565b82525050565b6000602082019050610f6e6000830184610f4a565b92915050565b6000610f7f82610f26565b9050919050565b610f8f81610f74565b82525050565b6000602082019050610faa6000830184610f86565b92915050565b6000610fbb82610eda565b9050919050565b610fcb81610fb0565b82525050565b6000819050919050565b6000819050919050565b6000611000610ffb610ff684610fd1565b610efa565b610fdb565b9050919050565b61101081610fe5565b82525050565b600060408201905061102b6000830185610fc2565b6110386020830184611007565b9392505050565b6000604051905090565b600080fd5b600080fd5b60008115159050919050565b61106881611053565b811461107357600080fd5b50565b6000815190506110858161105f565b92915050565b6000602082840312156110a1576110a0611049565b5b60006110af84828501611076565b91505092915050565b600082825260208201905092915050565b7f746f6b656e20617070726f766564206661696c65640000000000000000000000600082015250565b60006110ff6015836110b8565b915061110a826110c9565b602082019050919050565b6000602082019050818103600083015261112e816110f2565b9050919050565b7f64756d6d79546f6b656e20617070726f766564206661696c6564000000000000600082015250565b600061116b601a836110b8565b915061117682611135565b602082019050919050565b6000602082019050818103600083015261119a8161115e565b9050919050565b7f4e487b7100000000000000000000000000000000000000000000000000000000600052604160045260246000fd5b7f4e487b7100000000000000000000000000000000000000000000000000000000600052603260045260246000fd5b6000819050919050565b600061122461121f61121a846111ff565b610efa565b610fdb565b9050919050565b61123481611209565b82525050565b6000819050919050565b600061125f61125a6112558461123a565b610efa565b610fdb565b9050919050565b61126f81611244565b82525050565b600081519050919050565b600082825260208201905092915050565b6000819050602082019050919050565b6112aa81610fb0565b82525050565b60006112bc83836112a1565b60208301905092915050565b6000602082019050919050565b60006112e082611275565b6112ea8185611280565b93506112f583611291565b8060005b8381101561132657815161130d88826112b0565b9750611318836112c8565b9250506001810190506112f9565b5085935050505092915050565b61133c81610fdb565b82525050565b600060a082019050611357600083018861122b565b6113646020830187611266565b818103604083015261137681866112d5565b90506113856060830185610fc2565b6113926080830184611333565b9695505050505050565b600080fd5b6000601f19601f8301169050919050565b6113bb826113a1565b810181811067ffffffffffffffff821117156113da576113d96111a1565b5b80604052505050565b60006113ed61103f565b90506113f982826113b2565b919050565b600067ffffffffffffffff821115611419576114186111a1565b5b602082029050602081019050919050565b600080fd5b61143881610fdb565b811461144357600080fd5b50565b6000815190506114558161142f565b92915050565b600061146e611469846113fe565b6113e3565b905080838252602082019050602084028301858111156114915761149061142a565b5b835b818110156114ba57806114a68882611446565b845260208401935050602081019050611493565b5050509392505050565b600082601f8301126114d9576114d861139c565b5b81516114e984826020860161145b565b91505092915050565b60006020828403121561150857611507611049565b5b600082015167ffffffffffffffff8111156115265761152561104e565b5b611532848285016114c4565b91505092915050565b60006040820190506115506000830185610fc2565b61155d602083018461122b565b9392505050565b7f4c697175696420546f6b656e20617070726f7665206661696c65640000000000600082015250565b600061159a601b836110b8565b91506115a582611564565b602082019050919050565b600060208201905081810360008301526115c98161158d565b9050919050565b6000819050919050565b60006115f56115f06115eb846115d0565b610efa565b610fdb565b9050919050565b611605816115da565b82525050565b600060e082019050611620600083018a610fc2565b61162d6020830189610fc2565b61163a604083018861122b565b61164760608301876115fc565b61165460808301866115fc565b61166160a0830185610fc2565b61166e60c0830184611333565b98975050505050505050565b6000806040838503121561169157611690611049565b5b600061169f85828601611446565b92505060206116b085828601611446565b9150509250929050565b60006040820190506116cf6000830185610fc2565b6116dc6020830184611266565b9392505050565b7f5745544820617070726f766564206661696c6564000000000000000000000000600082015250565b60006117196014836110b8565b9150611724826116e3565b602082019050919050565b600060208201905081810360008301526117488161170c565b9050919050565b600060a0820190506117646000830188611007565b6117716020830187611266565b818103604083015261178381866112d5565b90506117926060830185610fc2565b61179f6080830184611333565b9695505050505050565b60006040820190506117be6000830185610fc2565b6117cb6020830184611333565b9392505050565b6000610100820190506117e8600083018b610fc2565b6117f5602083018a610fc2565b6118026040830189611333565b61180f6060830188611333565b61181c60808301876115fc565b61182960a08301866115fc565b61183660c0830185610fc2565b61184360e0830184611333565b9998505050505050505050565b60008060006060848603121561186957611868611049565b5b600061187786828701611446565b935050602061188886828701611446565b925050604061189986828701611446565b915050925092509256fea264697066735822122037eef4501328fbf06992e10125bc4dda357178d31073bdf3db3bc6fa1fb3a3e464736f6c634300080b0033",
  "immutableReferences": {},
  "source": "pragma solidity ^0.8.0;\n\nimport \"@openzeppelin/contracts/token/ERC20/ERC20.sol\";\n\n\ninterface IExerciceSolution \n{\n\tfunction addLiquidity() external;\n\n\tfunction withdrawLiquidity() external;\n\n\tfunction swapYourTokenForDummyToken() external;\n\n\tfunction swapYourTokenForEth() external;\n}\n\ninterface IUniswapV2Router01 {\n    function factory() external pure returns (address);\n    function WETH() external pure returns (address);\n\n    function addLiquidity(\n        address tokenA,\n        address tokenB,\n        uint amountADesired,\n        uint amountBDesired,\n        uint amountAMin,\n        uint amountBMin,\n        address to,\n        uint deadline\n    ) external returns (uint amountA, uint amountB, uint liquidity);\n    function addLiquidityETH(\n        address token,\n        uint amountTokenDesired,\n        uint amountTokenMin,\n        uint amountETHMin,\n        address to,\n        uint deadline\n    ) external payable returns (uint amountToken, uint amountETH, uint liquidity);\n    function removeLiquidity(\n        address tokenA,\n        address tokenB,\n        uint liquidity,\n        uint amountAMin,\n        uint amountBMin,\n        address to,\n        uint deadline\n    ) external returns (uint amountA, uint amountB);\n    function removeLiquidityETH(\n        address token,\n        uint liquidity,\n        uint amountTokenMin,\n        uint amountETHMin,\n        address to,\n        uint deadline\n    ) external returns (uint amountToken, uint amountETH);\n    function removeLiquidityWithPermit(\n        address tokenA,\n        address tokenB,\n        uint liquidity,\n        uint amountAMin,\n        uint amountBMin,\n        address to,\n        uint deadline,\n        bool approveMax, uint8 v, bytes32 r, bytes32 s\n    ) external returns (uint amountA, uint amountB);\n    function removeLiquidityETHWithPermit(\n        address token,\n        uint liquidity,\n        uint amountTokenMin,\n        uint amountETHMin,\n        address to,\n        uint deadline,\n        bool approveMax, uint8 v, bytes32 r, bytes32 s\n    ) external returns (uint amountToken, uint amountETH);\n    function swapExactTokensForTokens(\n        uint amountIn,\n        uint amountOutMin,\n        address[] calldata path,\n        address to,\n        uint deadline\n    ) external returns (uint[] memory amounts);\n    function swapTokensForExactTokens(\n        uint amountOut,\n        uint amountInMax,\n        address[] calldata path,\n        address to,\n        uint deadline\n    ) external returns (uint[] memory amounts);\n    function swapExactETHForTokens(uint amountOutMin, address[] calldata path, address to, uint deadline)\n        external\n        payable\n        returns (uint[] memory amounts);\n    function swapTokensForExactETH(uint amountOut, uint amountInMax, address[] calldata path, address to, uint deadline)\n        external\n        returns (uint[] memory amounts);\n    function swapExactTokensForETH(uint amountIn, uint amountOutMin, address[] calldata path, address to, uint deadline)\n        external\n        returns (uint[] memory amounts);\n    function swapETHForExactTokens(uint amountOut, address[] calldata path, address to, uint deadline)\n        external\n        payable\n        returns (uint[] memory amounts);\n\n    function quote(uint amountA, uint reserveA, uint reserveB) external pure returns (uint amountB);\n    function getAmountOut(uint amountIn, uint reserveIn, uint reserveOut) external pure returns (uint amountOut);\n    function getAmountIn(uint amountOut, uint reserveIn, uint reserveOut) external pure returns (uint amountIn);\n    function getAmountsOut(uint amountIn, address[] calldata path) external view returns (uint[] memory amounts);\n    function getAmountsIn(uint amountOut, address[] calldata path) external view returns (uint[] memory amounts);\n}\n\ninterface IUniswapV2Router02 is IUniswapV2Router01 {\n    function removeLiquidityETHSupportingFeeOnTransferTokens(\n        address token,\n        uint liquidity,\n        uint amountTokenMin,\n        uint amountETHMin,\n        address to,\n        uint deadline\n    ) external returns (uint amountETH);\n    function removeLiquidityETHWithPermitSupportingFeeOnTransferTokens(\n        address token,\n        uint liquidity,\n        uint amountTokenMin,\n        uint amountETHMin,\n        address to,\n        uint deadline,\n        bool approveMax, uint8 v, bytes32 r, bytes32 s\n    ) external returns (uint amountETH);\n\n    function swapExactTokensForTokensSupportingFeeOnTransferTokens(\n        uint amountIn,\n        uint amountOutMin,\n        address[] calldata path,\n        address to,\n        uint deadline\n    ) external;\n    function swapExactETHForTokensSupportingFeeOnTransferTokens(\n        uint amountOutMin,\n        address[] calldata path,\n        address to,\n        uint deadline\n    ) external payable;\n    function swapExactTokensForETHSupportingFeeOnTransferTokens(\n        uint amountIn,\n        uint amountOutMin,\n        address[] calldata path,\n        address to,\n        uint deadline\n    ) external;\n}\n\ncontract ExerciceSolution is IExerciceSolution{\n    ERC20 public Token;\n    ERC20 public WETH;  \n    ERC20 public uniLiquid; \n    ERC20 public dummyToken; \n    IUniswapV2Router02 public router; \n\n    constructor(){\n        Token = ERC20(address(0xB2511aeCD34894Ef71bAa4D54c84D0a6698801CC)); \n        WETH = ERC20(address(0xB4FBF271143F4FBf7B91A5ded31805e42b2208d6)); \n        uniLiquid = ERC20(address(0x1caEA8c0a8838B24CE15Ff00a165C1E4d167174e)); \n        dummyToken = ERC20(address(0x2aF483edaE4cce53186E6ed418FE92f8169Ad74E)); \n        router = IUniswapV2Router02(address(0x7a250d5630B4cF539739dF2C5dAcb4c659F2488D)); \n    }\n    function addLiquidity() override external{\n        uint tokenIn = 1000000; \n        uint wethIn = 1000; \n        require(Token.approve(address(router), tokenIn),\"token approved failed\");\n        require(WETH.approve(address(router), wethIn),\"WETH approved failed\");\n        router.addLiquidity(address(Token), address(WETH), tokenIn, wethIn, 0, 0, address(this), block.timestamp);\n\n    }\n\n\tfunction withdrawLiquidity() override external{\n        \n        require(uniLiquid.approve(address(router), 10000), \"Liquid Token approve failed\");\n        router.removeLiquidity(address(Token), address(WETH), 10000, 0, 0, address(this),block.timestamp);\n\n    }\n\n\tfunction swapYourTokenForDummyToken() override external{\n        require(Token.approve(address(router), 100000),\"token approved failed\");\n        require(dummyToken.approve(address(router), 100000),\"dummyToken approved failed\");\n\n        address [] memory path  = new address[](2); \n        path[0] = address(Token); \n        path[1]= address(dummyToken); \n\n        router.swapExactTokensForTokens(10000, 1000, path, address(this), block.timestamp);\n    }\n\n\tfunction swapYourTokenForEth() override external{\n        require(Token.approve(address(router), 100000),\"token approved failed\");\n        require(WETH.approve(address(router), 1000),\"WETH approved failed\");\n\n        address [] memory path  = new address[](2);  \n        path[0] = address(Token); \n        path[1]= address(WETH); \n\n        router.swapExactTokensForTokens(100000, 1000, path, address(this), block.timestamp);\n    }\n}",
  "sourcePath": "/home/lejamon/ESILV_A4/S2/defi/amm-101/contracts/ExerciceSolution.sol",
  "compiler": {
    "name": "solc",
    "version": "0.8.11+commit.d7f03943.Emscripten.clang"
  },
  "schemaVersion": "3.4.11",
  "updatedAt": "2023-01-28T16:20:14.724Z",
  "networkType": "ethereum",
  "devdoc": {
    "kind": "dev",
    "methods": {},
    "version": 1
  },
  "userdoc": {
    "kind": "user",
    "methods": {},
    "version": 1
  }
}